{
  "transactions": [
    {
      "hash": "0xea8352697179201a66da330449650f65f086774a6e7d60661ff6f773d501687c",
      "transactionType": "CALL",
      "contractName": "EulerRouter",
      "contractAddress": "0x0293b19af06df6cb00323e1e924aa8995bc1718b",
      "function": "govSetConfig(address,address,address)",
      "arguments": [
        "0x0b3e328455c4059EEb9e3f84b5543F74E24e7E1b",
        "0x0000000000000000000000000000000000000348",
        "0xFd73B3A1b55d0E95d25308Dc34360003a8f1Ba28"
      ],
      "transaction": {
        "from": "0x8b59fc48e305afe0934a897f0cac6cbd3764f3dd",
        "to": "0x0293b19af06df6cb00323e1e924aa8995bc1718b",
        "gas": "0x108b9",
        "value": "0x0",
        "input": "0x06c570c10000000000000000000000000b3e328455c4059eeb9e3f84b5543f74e24e7e1b0000000000000000000000000000000000000000000000000000000000000348000000000000000000000000fd73b3a1b55d0e95d25308dc34360003a8f1ba28",
        "nonce": "0x63",
        "chainId": "0x2105"
      },
      "additionalContracts": [],
      "isFixedGasLimit": false
    },
    {
      "hash": "0xb769a72764c8042ae28f114ece0a44fd020007b8f0eb7cd8ed73238f54450057",
      "transactionType": "CALL",
      "contractName": "EulerRouter",
      "contractAddress": "0x0293b19af06df6cb00323e1e924aa8995bc1718b",
      "function": "govSetResolvedVault(address,bool)",
      "arguments": [
        "0xced5E60B38B3cfE5cF945762c4f015fB4727bD64",
        "true"
      ],
      "transaction": {
        "from": "0x8b59fc48e305afe0934a897f0cac6cbd3764f3dd",
        "to": "0x0293b19af06df6cb00323e1e924aa8995bc1718b",
        "gas": "0x13e9c",
        "value": "0x0",
        "input": "0xd6c02926000000000000000000000000ced5e60b38b3cfe5cf945762c4f015fb4727bd640000000000000000000000000000000000000000000000000000000000000001",
        "nonce": "0x64",
        "chainId": "0x2105"
      },
      "additionalContracts": [],
      "isFixedGasLimit": false
    }
  ],
  "receipts": [
    {
      "status": "0x1",
      "cumulativeGasUsed": "0xd8f391",
      "logs": [
        {
          "address": "0x0293b19af06df6cb00323e1e924aa8995bc1718b",
          "topics": [
            "0x4ac83f39568b63f952374c82351889b07aff4f7e261232a20ba5a2a6d82b9ce0",
            "0x0000000000000000000000000000000000000000000000000000000000000348",
            "0x0000000000000000000000000b3e328455c4059eeb9e3f84b5543f74e24e7e1b",
            "0x000000000000000000000000fd73b3a1b55d0e95d25308dc34360003a8f1ba28"
          ],
          "data": "0x",
          "blockHash": "0x0000000000000000000000000000000000000000000000000000000000000000",
          "blockNumber": "0x2a24a40",
          "blockTimestamp": "0x69cef163",
          "transactionHash": "0xea8352697179201a66da330449650f65f086774a6e7d60661ff6f773d501687c",
          "transactionIndex": "0x38",
          "logIndex": "0x1cb",
          "removed": false
        }
      ],
      "logsBloom": "0x00000000000000000000000000002400000000000008000000000000000000000000000000000000020000000001000000100000000000000000000000000000000000100000000000000000000000000000000000000000000000000000000000000000000000000000000000080040000000000000000000000000000000000000000000000000000000000000000000000000008000000000000000000000000000000000000000000000000000000000000000000000000000000000000000000000000000000000000000000000080000000000000000080020000000000000000100000000000000000000000000000000000000000000000080000000",
      "type": "0x2",
      "transactionHash": "0xea8352697179201a66da330449650f65f086774a6e7d60661ff6f773d501687c",
      "transactionIndex": "0x38",
      "blockHash": "0x0000000000000000000000000000000000000000000000000000000000000000",
      "blockNumber": "0x2a24a40",
      "gasUsed": "0xbfa8",
      "effectiveGasPrice": "0x4c4b41",
      "blobGasUsed": "0x3af8",
      "from": "0x8b59fc48e305afe0934a897f0cac6cbd3764f3dd",
      "to": "0x0293b19af06df6cb00323e1e924aa8995bc1718b",
      "contractAddress": null,
      "daFootprintGasScalar": "0x94",
      "l1BaseFeeScalar": "0x8dd",
      "l1BlobBaseFee": "0x51c725",
      "l1BlobBaseFeeScalar": "0x101c12",
      "l1Fee": "0x76c14598",
      "l1GasPrice": "0x5fae922",
      "l1GasUsed": "0x66f"
    },
    {
      "status": "0x1",
      "cumulativeGasUsed": "0xd9da3d",
      "logs": [
        {
          "address": "0x0293b19af06df6cb00323e1e924aa8995bc1718b",
          "topics": [
            "0x15beaec71c94ee69b5a824e905ca6d1260da10196b715c38b565b80180f630ce",
            "0x000000000000000000000000ced5e60b38b3cfe5cf945762c4f015fb4727bd64",
            "0x0000000000000000000000000b3e328455c4059eeb9e3f84b5543f74e24e7e1b"
          ],
          "data": "0x",
          "blockHash": "0x0000000000000000000000000000000000000000000000000000000000000000",
          "blockNumber": "0x2a24a40",
          "blockTimestamp": "0x69cef163",
          "transactionHash": "0xb769a72764c8042ae28f114ece0a44fd020007b8f0eb7cd8ed73238f54450057",
          "transactionIndex": "0x39",
          "logIndex": "0x1cc",
          "removed": false
        }
      ],
      "logsBloom": "0x00000000000000000000000000000400000000000000000004000000000000000000000000000000000000000004000000100000000000000000000000000000000000100000000000000000000000000000000000000000000000000000001000000000000000000000000000080040000000000000000000000000000000000000000000000000000000000000000000000000000000000000000000000000000000000000000000000000000000000000000000000000000000000000000000000000000000000000000000000000080000000000000000000000000000000000000000000000000000000000000000000000000000000000000081004000",
      "type": "0x2",
      "transactionHash": "0xb769a72764c8042ae28f114ece0a44fd020007b8f0eb7cd8ed73238f54450057",
      "transactionIndex": "0x39",
      "blockHash": "0x0000000000000000000000000000000000000000000000000000000000000000",
      "blockNumber": "0x2a24a40",
      "gasUsed": "0xe6ac",
      "effectiveGasPrice": "0x4c4b41",
      "blobGasUsed": "0x39d0",
      "from": "0x8b59fc48e305afe0934a897f0cac6cbd3764f3dd",
      "to": "0x0293b19af06df6cb00323e1e924aa8995bc1718b",
      "contractAddress": null,
      "daFootprintGasScalar": "0x94",
      "l1BaseFeeScalar": "0x8dd",
      "l1BlobBaseFee": "0x51c725",
      "l1BlobBaseFeeScalar": "0x101c12",
      "l1Fee": "0x76c14598",
      "l1GasPrice": "0x5fae922",
      "l1GasUsed": "0x640"
    }
  ],
  "libraries": [],
  "pending": [],
  "returns": {},
  "timestamp": 1775169890525,
  "chain": 8453,
  "commit": "d76d214"
}