{
  "transactions": [
    {
      "hash": "0x2dd3f39afd3e97d91819bdd64d079d3beeb68c9bf422ff0f9df42060a7370496",
      "transactionType": "CALL",
      "contractName": null,
      "contractAddress": "0x7f321498a801a191a93c840750ed637149ddf8d0",
      "function": "createProxy(address,bool,bytes)",
      "arguments": [
        "0x0000000000000000000000000000000000000000",
        "true",
        "0x0b3e328455c4059eeb9e3f84b5543f74e24e7e1b0293b19af06df6cb00323e1e924aa8995bc1718b0000000000000000000000000000000000000348"
      ],
      "transaction": {
        "from": "0x8b59fc48e305afe0934a897f0cac6cbd3764f3dd",
        "to": "0x7f321498a801a191a93c840750ed637149ddf8d0",
        "gas": "0x186080",
        "value": "0x0",
        "input": "0x83e85b27000000000000000000000000000000000000000000000000000000000000000000000000000000000000000000000000000000000000000000000000000000010000000000000000000000000000000000000000000000000000000000000060000000000000000000000000000000000000000000000000000000000000003c0b3e328455c4059eeb9e3f84b5543f74e24e7e1b0293b19af06df6cb00323e1e924aa8995bc1718b000000000000000000000000000000000000034800000000",
        "nonce": "0x61",
        "chainId": "0x2105"
      },
      "additionalContracts": [
        {
          "transactionType": "CREATE",
          "contractName": null,
          "address": "0x3bd428b28c52f3534cc78075799ca798e4bce5a8",
          "initCode": "0x610140604052348015610010575f80fd5b506040516103bd3803806103bd83398101604081905261002f91610119565b6040517f6bf6eaff5e9af8fbccb949f4c38cc016936f8775363ccf4224db160365785d52905f90a16080815111156100ad5760405162461bcd60e51b815260206004820152601660248201527f747261696c696e67206461746120746f6f206c6f6e6700000000000000000000604482015260640160405180910390fd5b3360808181527fa3f0ad74e5423aebfd80d3ef4346578335a9a72aeaee59ff6cb3582b35133d5091909155815160a09081529082526100f1908201602083016101db565b610120526101005260e05260c0525061020e565b634e487b7160e01b5f52604160045260245ffd5b5f602080838503121561012a575f80fd5b82516001600160401b0380821115610140575f80fd5b818501915085601f830112610153575f80fd5b81518181111561016557610165610105565b604051601f8201601f19908116603f0116810190838211818310171561018d5761018d610105565b8160405282815288868487010111156101a4575f80fd5b5f93505b828410156101c557848401860151818501870152928501926101a8565b5f86848301015280965050505050505092915050565b5f805f80608085870312156101ee575f80fd5b505082516020840151604085015160609095015191969095509092509050565b60805160a05160c05160e051610100516101205161016e61024f5f395f60d501525f60b301525f609101525f606f01525f604d01525f602b015261016e5ff3fe60806040527f5c60da1b000000000000000000000000000000000000000000000000000000005f9081527f0000000000000000000000000000000000000000000000000000000000000000907f0000000000000000000000000000000000000000000000000000000000000000907f0000000000000000000000000000000000000000000000000000000000000000907f0000000000000000000000000000000000000000000000000000000000000000907f0000000000000000000000000000000000000000000000000000000000000000907f000000000000000000000000000000000000000000000000000000000000000090602090600481895afa5f51365f80378536528436602001528336604001528236606001525f803689015f845af49150503d5f803e808015610134573d5ff35b3d5ffdfea264697066735822122036296154def8851a8a18709715c895896cb25dcc53d0dbe585612cc33fba26a864736f6c6343000818003300000000000000000000000000000000000000000000000000000000000000200000000000000000000000000000000000000000000000000000000000000040000000000b3e328455c4059eeb9e3f84b5543f74e24e7e1b0293b19af06df6cb00323e1e924aa8995bc1718b0000000000000000000000000000000000000348"
        },
        {
          "transactionType": "CREATE",
          "contractName": null,
          "address": "0x16e19c51a369d798e37c5bd0540523b9d908982b",
          "initCode": "0x60a060405234801561000f575f80fd5b5033608052608051610a4861005d5f395f81816101b4015281816101ef015281816102f40152818161039c01528181610462015281816104f0015281816105c201526106370152610a485ff3fe608060405234801561000f575f80fd5b50600436106100cf575f3560e01c806338d52e0f1161007d578063985426ec11610058578063985426ec146101af578063a9059cbb146100f1578063dd62ed3e146101d6575f80fd5b806338d52e0f1461016757806370a082311461019457806395d89b41146101a7575f80fd5b806323b872dd116100ad57806323b872dd1461012a57806323de665114610138578063313ce5671461014d575f80fd5b806306fdde03146100d3578063095ea7b3146100f157806318160ddd14610114575b5f80fd5b6100db6101eb565b6040516100e89190610714565b60405180910390f35b6101046100ff366004610788565b6102be565b60405190151581526020016100e8565b61011c6102f1565b6040519081526020016100e8565b6101046100ff3660046107b2565b61014b6101463660046107b2565b610384565b005b61015561045f565b60405160ff90911681526020016100e8565b61016f6104ed565b60405173ffffffffffffffffffffffffffffffffffffffff90911681526020016100e8565b61011c6101a23660046107f0565b61057b565b6100db610633565b61016f7f000000000000000000000000000000000000000000000000000000000000000081565b61011c6101e4366004610812565b5f92915050565b60607f000000000000000000000000000000000000000000000000000000000000000073ffffffffffffffffffffffffffffffffffffffff166306fdde036040518163ffffffff1660e01b81526004015f60405180830381865afa158015610255573d5f803e3d5ffd5b505050506040513d5f823e601f3d9081017fffffffffffffffffffffffffffffffffffffffffffffffffffffffffffffffe016820160405261029a9190810190610876565b6040516020016102aa919061093c565b604051602081830303815290604052905090565b5f6040517ffea4851300000000000000000000000000000000000000000000000000000000815260040160405180910390fd5b5f7f000000000000000000000000000000000000000000000000000000000000000073ffffffffffffffffffffffffffffffffffffffff166347bd37186040518163ffffffff1660e01b8152600401602060405180830381865afa15801561035b573d5f803e3d5ffd5b505050506040513d601f19601f8201168201806040525081019061037f9190610980565b905090565b3373ffffffffffffffffffffffffffffffffffffffff7f000000000000000000000000000000000000000000000000000000000000000016146103f3576040517f08e2ce1700000000000000000000000000000000000000000000000000000000815260040160405180910390fd5b8173ffffffffffffffffffffffffffffffffffffffff168373ffffffffffffffffffffffffffffffffffffffff167fddf252ad1be2c89b69c2b068fc378daa952ba7f163c4a11628f55a4df523b3ef8360405161045291815260200190565b60405180910390a3505050565b5f7f000000000000000000000000000000000000000000000000000000000000000073ffffffffffffffffffffffffffffffffffffffff1663313ce5676040518163ffffffff1660e01b8152600401602060405180830381865afa1580156104c9573d5f803e3d5ffd5b505050506040513d601f19601f8201168201806040525081019061037f9190610997565b5f7f000000000000000000000000000000000000000000000000000000000000000073ffffffffffffffffffffffffffffffffffffffff166338d52e0f6040518163ffffffff1660e01b8152600401602060405180830381865afa158015610557573d5f803e3d5ffd5b505050506040513d601f19601f8201168201806040525081019061037f91906109b7565b6040517fd283e75f00000000000000000000000000000000000000000000000000000000815273ffffffffffffffffffffffffffffffffffffffff82811660048301525f917f00000000000000000000000000000000000000000000000000000000000000009091169063d283e75f90602401602060405180830381865afa158015610609573d5f803e3d5ffd5b505050506040513d601f19601f8201168201806040525081019061062d9190610980565b92915050565b60607f000000000000000000000000000000000000000000000000000000000000000073ffffffffffffffffffffffffffffffffffffffff166395d89b416040518163ffffffff1660e01b81526004015f60405180830381865afa15801561069d573d5f803e3d5ffd5b505050506040513d5f823e601f3d9081017fffffffffffffffffffffffffffffffffffffffffffffffffffffffffffffffe01682016040526106e29190810190610876565b6040516020016102aa91906109d2565b5f5b8381101561070c5781810151838201526020016106f4565b50505f910152565b602081525f82518060208401526107328160408501602087016106f2565b601f017fffffffffffffffffffffffffffffffffffffffffffffffffffffffffffffffe0169190910160400192915050565b73ffffffffffffffffffffffffffffffffffffffff81168114610785575f80fd5b50565b5f8060408385031215610799575f80fd5b82356107a481610764565b946020939093013593505050565b5f805f606084860312156107c4575f80fd5b83356107cf81610764565b925060208401356107df81610764565b929592945050506040919091013590565b5f60208284031215610800575f80fd5b813561080b81610764565b9392505050565b5f8060408385031215610823575f80fd5b823561082e81610764565b9150602083013561083e81610764565b809150509250929050565b7f4e487b71000000000000000000000000000000000000000000000000000000005f52604160045260245ffd5b5f60208284031215610886575f80fd5b815167ffffffffffffffff8082111561089d575f80fd5b818401915084601f8301126108b0575f80fd5b8151818111156108c2576108c2610849565b604051601f82017fffffffffffffffffffffffffffffffffffffffffffffffffffffffffffffffe0908116603f0116810190838211818310171561090857610908610849565b81604052828152876020848701011115610920575f80fd5b6109318360208301602088016106f2565b979650505050505050565b7f4465627420746f6b656e206f662000000000000000000000000000000000000081525f825161097381600e8501602087016106f2565b91909101600e0192915050565b5f60208284031215610990575f80fd5b5051919050565b5f602082840312156109a7575f80fd5b815160ff8116811461080b575f80fd5b5f602082840312156109c7575f80fd5b815161080b81610764565b5f82516109e38184602087016106f2565b7f2d4445425400000000000000000000000000000000000000000000000000000092019182525060050191905056fea26469706673582212206bbcf8a5f6399be794134cb469325022b558ec78aa377108a8d41412910591d864736f6c63430008180033"
        }
      ],
      "isFixedGasLimit": false
    }
  ],
  "receipts": [
    {
      "status": "0x1",
      "cumulativeGasUsed": "0x19bd878",
      "logs": [
        {
          "address": "0x3bd428b28c52f3534cc78075799ca798e4bce5a8",
          "topics": [
            "0x6bf6eaff5e9af8fbccb949f4c38cc016936f8775363ccf4224db160365785d52"
          ],
          "data": "0x",
          "blockHash": "0x1cd43dc962484f809ba76f94a4f51e14b3ac399922eae88fad9e41263ba2498d",
          "blockNumber": "0x2a24a0a",
          "blockTimestamp": "0x69cef0f7",
          "transactionHash": "0x2dd3f39afd3e97d91819bdd64d079d3beeb68c9bf422ff0f9df42060a7370496",
          "transactionIndex": "0x92",
          "logIndex": "0x3f9",
          "removed": false
        },
        {
          "address": "0xfe9011fd097cd35866b9e4740bbc88b4ef26e3ba",
          "topics": [
            "0x0d86caf31c60e8930bb317807498caf621639c94c6a4008b7447e34ee9bc8ada",
            "0x0000000000000000000000000000000000000000000000000000000000000001",
            "0x0000000000000000000000003bd428b28c52f3534cc78075799ca798e4bce5a8"
          ],
          "data": "0x000000000000000000000000000000000000000000000000000000000000002000000000000000000000000000000000000000000000000000000000000000075649525455414c00000000000000000000000000000000000000000000000000",
          "blockHash": "0x1cd43dc962484f809ba76f94a4f51e14b3ac399922eae88fad9e41263ba2498d",
          "blockNumber": "0x2a24a0a",
          "blockTimestamp": "0x69cef0f7",
          "transactionHash": "0x2dd3f39afd3e97d91819bdd64d079d3beeb68c9bf422ff0f9df42060a7370496",
          "transactionIndex": "0x92",
          "logIndex": "0x3fa",
          "removed": false
        },
        {
          "address": "0x3bd428b28c52f3534cc78075799ca798e4bce5a8",
          "topics": [
            "0x0cd345140b9008a43f99a999a328ece572a0193e8c8bf5f5755585e6f293b85e",
            "0x0000000000000000000000008b59fc48e305afe0934a897f0cac6cbd3764f3dd",
            "0x0000000000000000000000000b3e328455c4059eeb9e3f84b5543f74e24e7e1b"
          ],
          "data": "0x00000000000000000000000016e19c51a369d798e37c5bd0540523b9d908982b",
          "blockHash": "0x1cd43dc962484f809ba76f94a4f51e14b3ac399922eae88fad9e41263ba2498d",
          "blockNumber": "0x2a24a0a",
          "blockTimestamp": "0x69cef0f7",
          "transactionHash": "0x2dd3f39afd3e97d91819bdd64d079d3beeb68c9bf422ff0f9df42060a7370496",
          "transactionIndex": "0x92",
          "logIndex": "0x3fb",
          "removed": false
        },
        {
          "address": "0x3bd428b28c52f3534cc78075799ca798e4bce5a8",
          "topics": [
            "0x80b61abbfc5f73cfe5cf93cec97a69ed20643dc6c6f1833b05a1560aa164e24c"
          ],
          "data": "0x00000000000000000000000000000000000000000000000000000000000000000000000000000000000000000000000000000000000000000000000000000000000000000000000000000000000000000000000000000000000000000000000000000000000000000000000000000000000000000000000000000000000000000000000000000000000000000000000000000000033b2e3c9fd0803ce800000000000000000000000000000000000000000000000000000000000000000000000000000000000000000000000000000000000000000000000000000069cef0f7",
          "blockHash": "0x1cd43dc962484f809ba76f94a4f51e14b3ac399922eae88fad9e41263ba2498d",
          "blockNumber": "0x2a24a0a",
          "blockTimestamp": "0x69cef0f7",
          "transactionHash": "0x2dd3f39afd3e97d91819bdd64d079d3beeb68c9bf422ff0f9df42060a7370496",
          "transactionIndex": "0x92",
          "logIndex": "0x3fc",
          "removed": false
        },
        {
          "address": "0x7f321498a801a191a93c840750ed637149ddf8d0",
          "topics": [
            "0x04e664079117e113faa9684bc14aecb41651cbf098b14eda271248c6d0cda57c",
            "0x0000000000000000000000003bd428b28c52f3534cc78075799ca798e4bce5a8"
          ],
          "data": "0x000000000000000000000000000000000000000000000000000000000000000100000000000000000000000030a9a9654804f1e5b3291a86e83eded7cf2816180000000000000000000000000000000000000000000000000000000000000060000000000000000000000000000000000000000000000000000000000000003c0b3e328455c4059eeb9e3f84b5543f74e24e7e1b0293b19af06df6cb00323e1e924aa8995bc1718b000000000000000000000000000000000000034800000000",
          "blockHash": "0x1cd43dc962484f809ba76f94a4f51e14b3ac399922eae88fad9e41263ba2498d",
          "blockNumber": "0x2a24a0a",
          "blockTimestamp": "0x69cef0f7",
          "transactionHash": "0x2dd3f39afd3e97d91819bdd64d079d3beeb68c9bf422ff0f9df42060a7370496",
          "transactionIndex": "0x92",
          "logIndex": "0x3fd",
          "removed": false
        }
      ],
      "logsBloom": "0x00000000000000000000000000000000000000000000000000000000000000000000000000000001000010000404040000100000800000000000000000040010000000000000000000000000000000000000000000050000004000000008000000000000000000000000000000000040000000020000020800000000000000000400000000000004000100000000000000020000000000000000000000000000000000000000000800000000000004000000000000020000000000080000800000000000000000000000000100200000080000000000000000000000000040000100000000000004000000000028000000040000000000000000100000000000",
      "type": "0x2",
      "transactionHash": "0x2dd3f39afd3e97d91819bdd64d079d3beeb68c9bf422ff0f9df42060a7370496",
      "transactionIndex": "0x92",
      "blockHash": "0x1cd43dc962484f809ba76f94a4f51e14b3ac399922eae88fad9e41263ba2498d",
      "blockNumber": "0x2a24a0a",
      "gasUsed": "0x10ab03",
      "effectiveGasPrice": "0x4c4b41",
      "blobGasUsed": "0x3f98",
      "from": "0x8b59fc48e305afe0934a897f0cac6cbd3764f3dd",
      "to": "0x7f321498a801a191a93c840750ed637149ddf8d0",
      "contractAddress": null,
      "daFootprintGasScalar": "0x94",
      "l1BaseFeeScalar": "0x8dd",
      "l1BlobBaseFee": "0x49a628",
      "l1BlobBaseFeeScalar": "0x101c12",
      "l1Fee": "0x392f7aed",
      "l1GasPrice": "0x5e3b26e",
      "l1GasUsed": "0x6e7"
    }
  ],
  "libraries": [],
  "pending": [],
  "returns": {},
  "timestamp": 1775169783840,
  "chain": 8453,
  "commit": "d76d214"
}