{
  "transactions": [
    {
      "hash": "0xbd2ac9ee834525337ae48b314051545d2db4e6d0f6a35b2a2fcb9fda7f48bc3d",
      "transactionType": "CALL",
      "contractName": null,
      "contractAddress": "0x2d94c898a17f9d8c0ba75010a51cd61bf55b402e",
      "function": "deploy(uint256,uint256,uint256,uint32)",
      "arguments": [
        "0",
        "1288973619",
        "20414684065",
        "3435973836"
      ],
      "transaction": {
        "from": "0x8b59fc48e305afe0934a897f0cac6cbd3764f3dd",
        "to": "0x2d94c898a17f9d8c0ba75010a51cd61bf55b402e",
        "gas": "0x6fbf1",
        "value": "0x0",
        "input": "0x42b7bf310000000000000000000000000000000000000000000000000000000000000000000000000000000000000000000000000000000000000000000000004cd42d3300000000000000000000000000000000000000000000000000000004c0cf5ba100000000000000000000000000000000000000000000000000000000cccccccc",
        "nonce": "0x60",
        "chainId": "0x2105"
      },
      "additionalContracts": [
        {
          "transactionType": "CREATE",
          "contractName": null,
          "address": "0x6d429c42038e9270039bf16b97406912ceaac28e",
          "initCode": "0x610100604052348015610010575f80fd5b5060405161054138038061054183398101604081905261002f9161004c565b60809390935260a09190915260c05263ffffffff1660e052610092565b5f805f806080858703121561005f575f80fd5b845193506020850151925060408501519150606085015163ffffffff81168114610087575f80fd5b939692955090935050565b60805160a05160c05160e05161044e6100f35f395f81816101250152818161020c0152818161029e01526102d001525f818160fe01526102fd01525f818160c40152818161023c015261027d01525f8181607801526101eb015261044e5ff3fe608060405234801561000f575f80fd5b506004361061006f575f3560e01c8063bca02c131161004d578063bca02c13146100e6578063d0134cb7146100f9578063fd2da33914610120575f80fd5b80631f68f20a146100735780632e34c872146100ac578063a62b75a8146100bf575b5f80fd5b61009a7f000000000000000000000000000000000000000000000000000000000000000081565b60405190815260200160405180910390f35b61009a6100ba366004610339565b610147565b61009a7f000000000000000000000000000000000000000000000000000000000000000081565b61009a6100f4366004610339565b61015b565b61009a7f000000000000000000000000000000000000000000000000000000000000000081565b61009a7f000000000000000000000000000000000000000000000000000000000000000081565b5f6101538484846101b2565b949350505050565b5f3373ffffffffffffffffffffffffffffffffffffffff8516146101ab576040517f35a4399400000000000000000000000000000000000000000000000000000000815260040160405180910390fd5b6101538484845b5f806101be83856103b0565b90505f81156101e557816101d663ffffffff866103c9565b6101e091906103e0565b6101e7565b5f5b90507f00000000000000000000000000000000000000000000000000000000000000007f000000000000000000000000000000000000000000000000000000000000000063ffffffff831611610278576102677f000000000000000000000000000000000000000000000000000000000000000063ffffffff84166103c9565b61027190826103b0565b905061032f565b6102c27f00000000000000000000000000000000000000000000000000000000000000007f00000000000000000000000000000000000000000000000000000000000000006103c9565b6102cc90826103b0565b90507f000000000000000000000000000000000000000000000000000000000000000063ffffffff831603610321817f00000000000000000000000000000000000000000000000000000000000000006103c9565b61032b90836103b0565b9150505b9695505050505050565b5f805f6060848603121561034b575f80fd5b833573ffffffffffffffffffffffffffffffffffffffff8116811461036e575f80fd5b95602085013595506040909401359392505050565b7f4e487b71000000000000000000000000000000000000000000000000000000005f52601160045260245ffd5b808201808211156103c3576103c3610383565b92915050565b80820281158282048414176103c3576103c3610383565b5f82610413577f4e487b71000000000000000000000000000000000000000000000000000000005f52601260045260245ffd5b50049056fea26469706673582212200f8f7586c37081422a570e9d0cbd6dd97d62d7440e12e06c2ddb89199f6f60c664736f6c634300081800330000000000000000000000000000000000000000000000000000000000000000000000000000000000000000000000000000000000000000000000004cd42d3300000000000000000000000000000000000000000000000000000004c0cf5ba100000000000000000000000000000000000000000000000000000000cccccccc"
        }
      ],
      "isFixedGasLimit": false
    }
  ],
  "receipts": [
    {
      "status": "0x1",
      "cumulativeGasUsed": "0x20108e6",
      "logs": [
        {
          "address": "0x2d94c898a17f9d8c0ba75010a51cd61bf55b402e",
          "topics": [
            "0xac4ce915ef22753b636e57aac5ae5fdd9d13d782ae5bf6dbcda15e29f95386c1",
            "0x0000000000000000000000006d429c42038e9270039bf16b97406912ceaac28e",
            "0x0000000000000000000000008b59fc48e305afe0934a897f0cac6cbd3764f3dd"
          ],
          "data": "0x0000000000000000000000000000000000000000000000000000000069cef0e7",
          "blockHash": "0xdb72c5c4e1ea57ad7dd6a8f61b7e2e92c7b24e660c8838751b1842ed8d9545d1",
          "blockNumber": "0x2a24a02",
          "blockTimestamp": "0x69cef0e7",
          "transactionHash": "0xbd2ac9ee834525337ae48b314051545d2db4e6d0f6a35b2a2fcb9fda7f48bc3d",
          "transactionIndex": "0x95",
          "logIndex": "0x2dc",
          "removed": false
        }
      ],
      "logsBloom": "0x00000000000000000000000000000000000000000000000000000000000000000000000000000000000000000400000000000000800000000000000000000000000000000000000000000000000000000000000008200000000000000000000000000000000000000000000000000000000000000000000000000020000000000000000000000000000000000000000000000000000000000000000000000000000000000000000000000000100000000000000000000000000000000000000000000000010000000000000000200000000000000000000000000000000000000010400000000000000000000000000000000000000000000008000000200000",
      "type": "0x2",
      "transactionHash": "0xbd2ac9ee834525337ae48b314051545d2db4e6d0f6a35b2a2fcb9fda7f48bc3d",
      "transactionIndex": "0x95",
      "blockHash": "0xdb72c5c4e1ea57ad7dd6a8f61b7e2e92c7b24e660c8838751b1842ed8d9545d1",
      "blockNumber": "0x2a24a02",
      "gasUsed": "0x50e70",
      "effectiveGasPrice": "0x4c4b41",
      "blobGasUsed": "0x39d0",
      "from": "0x8b59fc48e305afe0934a897f0cac6cbd3764f3dd",
      "to": "0x2d94c898a17f9d8c0ba75010a51cd61bf55b402e",
      "contractAddress": null,
      "daFootprintGasScalar": "0x94",
      "l1BaseFeeScalar": "0x8dd",
      "l1BlobBaseFee": "0x49a628",
      "l1BlobBaseFeeScalar": "0x101c12",
      "l1Fee": "0x3631888d",
      "l1GasPrice": "0x68fb0a8",
      "l1GasUsed": "0x640"
    }
  ],
  "libraries": [],
  "pending": [],
  "returns": {},
  "timestamp": 1775169767988,
  "chain": 8453,
  "commit": "d76d214"
}